{
  "_format": "hh-sol-artifact-1",
  "contractName": "MyERC20Votes",
  "sourceName": "contracts/MyERC20Votes.sol",
  "abi": [
    {
      "inputs": [],
      "stateMutability": "nonpayable",
      "type": "constructor"
    },
    {
      "anonymous": false,
      "inputs": [
        {
          "indexed": true,
          "internalType": "address",
          "name": "owner",
          "type": "address"
        },
        {
          "indexed": true,
          "internalType": "address",
          "name": "spender",
          "type": "address"
        },
        {
          "indexed": false,
          "internalType": "uint256",
          "name": "value",
          "type": "uint256"
        }
      ],
      "name": "Approval",
      "type": "event"
    },
    {
      "anonymous": false,
      "inputs": [
        {
          "indexed": true,
          "internalType": "address",
          "name": "delegator",
          "type": "address"
        },
        {
          "indexed": true,
          "internalType": "address",
          "name": "fromDelegate",
          "type": "address"
        },
        {
          "indexed": true,
          "internalType": "address",
          "name": "toDelegate",
          "type": "address"
        }
      ],
      "name": "DelegateChanged",
      "type": "event"
    },
    {
      "anonymous": false,
      "inputs": [
        {
          "indexed": true,
          "internalType": "address",
          "name": "delegate",
          "type": "address"
        },
        {
          "indexed": false,
          "internalType": "uint256",
          "name": "previousBalance",
          "type": "uint256"
        },
        {
          "indexed": false,
          "internalType": "uint256",
          "name": "newBalance",
          "type": "uint256"
        }
      ],
      "name": "DelegateVotesChanged",
      "type": "event"
    },
    {
      "anonymous": false,
      "inputs": [
        {
          "indexed": true,
          "internalType": "bytes32",
          "name": "role",
          "type": "bytes32"
        },
        {
          "indexed": true,
          "internalType": "bytes32",
          "name": "previousAdminRole",
          "type": "bytes32"
        },
        {
          "indexed": true,
          "internalType": "bytes32",
          "name": "newAdminRole",
          "type": "bytes32"
        }
      ],
      "name": "RoleAdminChanged",
      "type": "event"
    },
    {
      "anonymous": false,
      "inputs": [
        {
          "indexed": true,
          "internalType": "bytes32",
          "name": "role",
          "type": "bytes32"
        },
        {
          "indexed": true,
          "internalType": "address",
          "name": "account",
          "type": "address"
        },
        {
          "indexed": true,
          "internalType": "address",
          "name": "sender",
          "type": "address"
        }
      ],
      "name": "RoleGranted",
      "type": "event"
    },
    {
      "anonymous": false,
      "inputs": [
        {
          "indexed": true,
          "internalType": "bytes32",
          "name": "role",
          "type": "bytes32"
        },
        {
          "indexed": true,
          "internalType": "address",
          "name": "account",
          "type": "address"
        },
        {
          "indexed": true,
          "internalType": "address",
          "name": "sender",
          "type": "address"
        }
      ],
      "name": "RoleRevoked",
      "type": "event"
    },
    {
      "anonymous": false,
      "inputs": [
        {
          "indexed": true,
          "internalType": "address",
          "name": "from",
          "type": "address"
        },
        {
          "indexed": true,
          "internalType": "address",
          "name": "to",
          "type": "address"
        },
        {
          "indexed": false,
          "internalType": "uint256",
          "name": "value",
          "type": "uint256"
        }
      ],
      "name": "Transfer",
      "type": "event"
    },
    {
      "inputs": [],
      "name": "DEFAULT_ADMIN_ROLE",
      "outputs": [
        {
          "internalType": "bytes32",
          "name": "",
          "type": "bytes32"
        }
      ],
      "stateMutability": "view",
      "type": "function"
    },
    {
      "inputs": [],
      "name": "DOMAIN_SEPARATOR",
      "outputs": [
        {
          "internalType": "bytes32",
          "name": "",
          "type": "bytes32"
        }
      ],
      "stateMutability": "view",
      "type": "function"
    },
    {
      "inputs": [],
      "name": "MINTER_ROLE",
      "outputs": [
        {
          "internalType": "bytes32",
          "name": "",
          "type": "bytes32"
        }
      ],
      "stateMutability": "view",
      "type": "function"
    },
    {
      "inputs": [
        {
          "internalType": "address",
          "name": "owner",
          "type": "address"
        },
        {
          "internalType": "address",
          "name": "spender",
          "type": "address"
        }
      ],
      "name": "allowance",
      "outputs": [
        {
          "internalType": "uint256",
          "name": "",
          "type": "uint256"
        }
      ],
      "stateMutability": "view",
      "type": "function"
    },
    {
      "inputs": [
        {
          "internalType": "address",
          "name": "spender",
          "type": "address"
        },
        {
          "internalType": "uint256",
          "name": "amount",
          "type": "uint256"
        }
      ],
      "name": "approve",
      "outputs": [
        {
          "internalType": "bool",
          "name": "",
          "type": "bool"
        }
      ],
      "stateMutability": "nonpayable",
      "type": "function"
    },
    {
      "inputs": [
        {
          "internalType": "address",
          "name": "account",
          "type": "address"
        }
      ],
      "name": "balanceOf",
      "outputs": [
        {
          "internalType": "uint256",
          "name": "",
          "type": "uint256"
        }
      ],
      "stateMutability": "view",
      "type": "function"
    },
    {
      "inputs": [
        {
          "internalType": "address",
          "name": "account",
          "type": "address"
        },
        {
          "internalType": "uint32",
          "name": "pos",
          "type": "uint32"
        }
      ],
      "name": "checkpoints",
      "outputs": [
        {
          "components": [
            {
              "internalType": "uint32",
              "name": "fromBlock",
              "type": "uint32"
            },
            {
              "internalType": "uint224",
              "name": "votes",
              "type": "uint224"
            }
          ],
          "internalType": "struct ERC20Votes.Checkpoint",
          "name": "",
          "type": "tuple"
        }
      ],
      "stateMutability": "view",
      "type": "function"
    },
    {
      "inputs": [],
      "name": "decimals",
      "outputs": [
        {
          "internalType": "uint8",
          "name": "",
          "type": "uint8"
        }
      ],
      "stateMutability": "view",
      "type": "function"
    },
    {
      "inputs": [
        {
          "internalType": "address",
          "name": "spender",
          "type": "address"
        },
        {
          "internalType": "uint256",
          "name": "subtractedValue",
          "type": "uint256"
        }
      ],
      "name": "decreaseAllowance",
      "outputs": [
        {
          "internalType": "bool",
          "name": "",
          "type": "bool"
        }
      ],
      "stateMutability": "nonpayable",
      "type": "function"
    },
    {
      "inputs": [
        {
          "internalType": "address",
          "name": "delegatee",
          "type": "address"
        }
      ],
      "name": "delegate",
      "outputs": [],
      "stateMutability": "nonpayable",
      "type": "function"
    },
    {
      "inputs": [
        {
          "internalType": "address",
          "name": "delegatee",
          "type": "address"
        },
        {
          "internalType": "uint256",
          "name": "nonce",
          "type": "uint256"
        },
        {
          "internalType": "uint256",
          "name": "expiry",
          "type": "uint256"
        },
        {
          "internalType": "uint8",
          "name": "v",
          "type": "uint8"
        },
        {
          "internalType": "bytes32",
          "name": "r",
          "type": "bytes32"
        },
        {
          "internalType": "bytes32",
          "name": "s",
          "type": "bytes32"
        }
      ],
      "name": "delegateBySig",
      "outputs": [],
      "stateMutability": "nonpayable",
      "type": "function"
    },
    {
      "inputs": [
        {
          "internalType": "address",
          "name": "account",
          "type": "address"
        }
      ],
      "name": "delegates",
      "outputs": [
        {
          "internalType": "address",
          "name": "",
          "type": "address"
        }
      ],
      "stateMutability": "view",
      "type": "function"
    },
    {
      "inputs": [
        {
          "internalType": "uint256",
          "name": "blockNumber",
          "type": "uint256"
        }
      ],
      "name": "getPastTotalSupply",
      "outputs": [
        {
          "internalType": "uint256",
          "name": "",
          "type": "uint256"
        }
      ],
      "stateMutability": "view",
      "type": "function"
    },
    {
      "inputs": [
        {
          "internalType": "address",
          "name": "account",
          "type": "address"
        },
        {
          "internalType": "uint256",
          "name": "blockNumber",
          "type": "uint256"
        }
      ],
      "name": "getPastVotes",
      "outputs": [
        {
          "internalType": "uint256",
          "name": "",
          "type": "uint256"
        }
      ],
      "stateMutability": "view",
      "type": "function"
    },
    {
      "inputs": [
        {
          "internalType": "bytes32",
          "name": "role",
          "type": "bytes32"
        }
      ],
      "name": "getRoleAdmin",
      "outputs": [
        {
          "internalType": "bytes32",
          "name": "",
          "type": "bytes32"
        }
      ],
      "stateMutability": "view",
      "type": "function"
    },
    {
      "inputs": [
        {
          "internalType": "address",
          "name": "account",
          "type": "address"
        }
      ],
      "name": "getVotes",
      "outputs": [
        {
          "internalType": "uint256",
          "name": "",
          "type": "uint256"
        }
      ],
      "stateMutability": "view",
      "type": "function"
    },
    {
      "inputs": [
        {
          "internalType": "bytes32",
          "name": "role",
          "type": "bytes32"
        },
        {
          "internalType": "address",
          "name": "account",
          "type": "address"
        }
      ],
      "name": "grantRole",
      "outputs": [],
      "stateMutability": "nonpayable",
      "type": "function"
    },
    {
      "inputs": [
        {
          "internalType": "address",
          "name": "_receiver",
          "type": "address"
        }
      ],
      "name": "grantRole",
      "outputs": [],
      "stateMutability": "nonpayable",
      "type": "function"
    },
    {
      "inputs": [
        {
          "internalType": "bytes32",
          "name": "role",
          "type": "bytes32"
        },
        {
          "internalType": "address",
          "name": "account",
          "type": "address"
        }
      ],
      "name": "hasRole",
      "outputs": [
        {
          "internalType": "bool",
          "name": "",
          "type": "bool"
        }
      ],
      "stateMutability": "view",
      "type": "function"
    },
    {
      "inputs": [
        {
          "internalType": "address",
          "name": "spender",
          "type": "address"
        },
        {
          "internalType": "uint256",
          "name": "addedValue",
          "type": "uint256"
        }
      ],
      "name": "increaseAllowance",
      "outputs": [
        {
          "internalType": "bool",
          "name": "",
          "type": "bool"
        }
      ],
      "stateMutability": "nonpayable",
      "type": "function"
    },
    {
      "inputs": [
        {
          "internalType": "address",
          "name": "to",
          "type": "address"
        },
        {
          "internalType": "uint256",
          "name": "amount",
          "type": "uint256"
        }
      ],
      "name": "mint",
      "outputs": [],
      "stateMutability": "nonpayable",
      "type": "function"
    },
    {
      "inputs": [],
      "name": "name",
      "outputs": [
        {
          "internalType": "string",
          "name": "",
          "type": "string"
        }
      ],
      "stateMutability": "view",
      "type": "function"
    },
    {
      "inputs": [
        {
          "internalType": "address",
          "name": "owner",
          "type": "address"
        }
      ],
      "name": "nonces",
      "outputs": [
        {
          "internalType": "uint256",
          "name": "",
          "type": "uint256"
        }
      ],
      "stateMutability": "view",
      "type": "function"
    },
    {
      "inputs": [
        {
          "internalType": "address",
          "name": "account",
          "type": "address"
        }
      ],
      "name": "numCheckpoints",
      "outputs": [
        {
          "internalType": "uint32",
          "name": "",
          "type": "uint32"
        }
      ],
      "stateMutability": "view",
      "type": "function"
    },
    {
      "inputs": [
        {
          "internalType": "address",
          "name": "owner",
          "type": "address"
        },
        {
          "internalType": "address",
          "name": "spender",
          "type": "address"
        },
        {
          "internalType": "uint256",
          "name": "value",
          "type": "uint256"
        },
        {
          "internalType": "uint256",
          "name": "deadline",
          "type": "uint256"
        },
        {
          "internalType": "uint8",
          "name": "v",
          "type": "uint8"
        },
        {
          "internalType": "bytes32",
          "name": "r",
          "type": "bytes32"
        },
        {
          "internalType": "bytes32",
          "name": "s",
          "type": "bytes32"
        }
      ],
      "name": "permit",
      "outputs": [],
      "stateMutability": "nonpayable",
      "type": "function"
    },
    {
      "inputs": [
        {
          "internalType": "bytes32",
          "name": "role",
          "type": "bytes32"
        },
        {
          "internalType": "address",
          "name": "account",
          "type": "address"
        }
      ],
      "name": "renounceRole",
      "outputs": [],
      "stateMutability": "nonpayable",
      "type": "function"
    },
    {
      "inputs": [
        {
          "internalType": "bytes32",
          "name": "role",
          "type": "bytes32"
        },
        {
          "internalType": "address",
          "name": "account",
          "type": "address"
        }
      ],
      "name": "revokeRole",
      "outputs": [],
      "stateMutability": "nonpayable",
      "type": "function"
    },
    {
      "inputs": [
        {
          "internalType": "bytes4",
          "name": "interfaceId",
          "type": "bytes4"
        }
      ],
      "name": "supportsInterface",
      "outputs": [
        {
          "internalType": "bool",
          "name": "",
          "type": "bool"
        }
      ],
      "stateMutability": "view",
      "type": "function"
    },
    {
      "inputs": [],
      "name": "symbol",
      "outputs": [
        {
          "internalType": "string",
          "name": "",
          "type": "string"
        }
      ],
      "stateMutability": "view",
      "type": "function"
    },
    {
      "inputs": [],
      "name": "totalSupply",
      "outputs": [
        {
          "internalType": "uint256",
          "name": "",
          "type": "uint256"
        }
      ],
      "stateMutability": "view",
      "type": "function"
    },
    {
      "inputs": [
        {
          "internalType": "address",
          "name": "to",
          "type": "address"
        },
        {
          "internalType": "uint256",
          "name": "amount",
          "type": "uint256"
        }
      ],
      "name": "transfer",
      "outputs": [
        {
          "internalType": "bool",
          "name": "",
          "type": "bool"
        }
      ],
      "stateMutability": "nonpayable",
      "type": "function"
    },
    {
      "inputs": [
        {
          "internalType": "address",
          "name": "from",
          "type": "address"
        },
        {
          "internalType": "address",
          "name": "to",
          "type": "address"
        },
        {
          "internalType": "uint256",
          "name": "amount",
          "type": "uint256"
        }
      ],
      "name": "transferFrom",
      "outputs": [
        {
          "internalType": "bool",
          "name": "",
          "type": "bool"
        }
      ],
      "stateMutability": "nonpayable",
      "type": "function"
    }
  ],
  "bytecode": "0x6101406040523480156200001257600080fd5b506040518060400160405280600781526020016626bcaa37b5b2b760c91b81525080604051806040016040528060018152602001603160f81b8152506040518060400160405280600781526020016626bcaa37b5b2b760c91b815250604051806040016040528060038152602001624d544b60e81b8152508160039080519060200190620000a292919062000230565b508051620000b890600490602084019062000230565b5050825160209384012082519284019290922060e08390526101008190524660a0818152604080517f8b73c3c69bb8fe3d512ecc4cf759cc79239f7b179b0ffacaa9a75d522b39400f818901819052818301979097526060810194909452608080850193909352308483018190528151808603909301835260c09485019091528151919096012090529290925261012052506200015990506000336200018b565b620001857f9f2df0fed2c77648de5860a4cc508cd0818c85b8b8a1ab4ceeef8d981c8956a6336200018b565b62000313565b60008281526005602090815260408083206001600160a01b038516845290915290205460ff166200022c5760008281526005602090815260408083206001600160a01b03851684529091529020805460ff19166001179055620001eb3390565b6001600160a01b0316816001600160a01b0316837f2f8788117e7eff1d82e926ec794901d17c78024a50270940304540a733656f0d60405160405180910390a45b5050565b8280546200023e90620002d6565b90600052602060002090601f016020900481019282620002625760008555620002ad565b82601f106200027d57805160ff1916838001178555620002ad565b82800160010185558215620002ad579182015b82811115620002ad57825182559160200191906001019062000290565b50620002bb929150620002bf565b5090565b5b80821115620002bb5760008155600101620002c0565b600181811c90821680620002eb57607f821691505b602082108114156200030d57634e487b7160e01b600052602260045260246000fd5b50919050565b60805160a05160c05160e05161010051610120516123d5620003636000396000611170015260006111bf0152600061119a015260006110f30152600061111d0152600061114701526123d56000f3fe608060405234801561001057600080fd5b50600436106101f05760003560e01c80636fcfff451161010f578063a457c2d7116100a2578063d539139311610071578063d539139314610468578063d547741f1461048f578063dd62ed3e146104a2578063f1127ed8146104b557600080fd5b8063a457c2d71461041c578063a9059cbb1461042f578063c3cda52014610442578063d505accf1461045557600080fd5b806391d14854116100de57806391d14854146103e657806395d89b41146103f95780639ab24eb014610401578063a217fddf1461041457600080fd5b80636fcfff451461036f57806370a08231146103975780637ecebe00146103c05780638e539e8c146103d357600080fd5b80633644e515116101875780633a46b1a8116101565780633a46b1a8146102f257806340c10f1914610305578063587cde1e146103185780635c19a95c1461035c57600080fd5b80633644e515146102b157806336568abe146102b957806338977686146102cc57806339509351146102df57600080fd5b806323b872dd116101c357806323b872dd14610257578063248a9ca31461026a5780632f2ff15d1461028d578063313ce567146102a257600080fd5b806301ffc9a7146101f557806306fdde031461021d578063095ea7b31461023257806318160ddd14610245575b600080fd5b610208610203366004611f58565b6104f2565b60405190151581526020015b60405180910390f35b610225610529565b6040516102149190611fae565b610208610240366004611ffd565b6105bb565b6002545b604051908152602001610214565b610208610265366004612027565b6105d3565b610249610278366004612063565b60009081526005602052604090206001015490565b6102a061029b36600461207c565b6105f7565b005b60405160128152602001610214565b610249610621565b6102a06102c736600461207c565b610630565b6102a06102da3660046120a8565b6106b3565b6102086102ed366004611ffd565b6106e0565b610249610300366004611ffd565b610702565b6102a0610313366004611ffd565b61077c565b6103446103263660046120a8565b6001600160a01b039081166000908152600860205260409020541690565b6040516001600160a01b039091168152602001610214565b6102a061036a3660046120a8565b6107b0565b61038261037d3660046120a8565b6107ba565b60405163ffffffff9091168152602001610214565b6102496103a53660046120a8565b6001600160a01b031660009081526020819052604090205490565b6102496103ce3660046120a8565b6107dc565b6102496103e1366004612063565b6107fa565b6102086103f436600461207c565b610856565b610225610881565b61024961040f3660046120a8565b610890565b610249600081565b61020861042a366004611ffd565b610917565b61020861043d366004611ffd565b610992565b6102a06104503660046120d4565b6109a0565b6102a061046336600461212c565b610ad6565b6102497f9f2df0fed2c77648de5860a4cc508cd0818c85b8b8a1ab4ceeef8d981c8956a681565b6102a061049d36600461207c565b610c3a565b6102496104b0366004612196565b610c5f565b6104c86104c33660046121c0565b610c8a565b60408051825163ffffffff1681526020928301516001600160e01b03169281019290925201610214565b60006001600160e01b03198216637965db0b60e01b148061052357506301ffc9a760e01b6001600160e01b03198316145b92915050565b60606003805461053890612200565b80601f016020809104026020016040519081016040528092919081815260200182805461056490612200565b80156105b15780601f10610586576101008083540402835291602001916105b1565b820191906000526020600020905b81548152906001019060200180831161059457829003601f168201915b5050505050905090565b6000336105c9818585610d0e565b5060019392505050565b6000336105e1858285610e32565b6105ec858585610eac565b506001949350505050565b60008281526005602052604090206001015461061281611056565b61061c8383611060565b505050565b600061062b6110e6565b905090565b6001600160a01b03811633146106a55760405162461bcd60e51b815260206004820152602f60248201527f416363657373436f6e74726f6c3a2063616e206f6e6c792072656e6f756e636560448201526e103937b632b9903337b91039b2b63360891b60648201526084015b60405180910390fd5b6106af828261120d565b5050565b6106dd7f9f2df0fed2c77648de5860a4cc508cd0818c85b8b8a1ab4ceeef8d981c8956a682611060565b50565b6000336105c98185856106f38383610c5f565b6106fd919061224b565b610d0e565b60004382106107535760405162461bcd60e51b815260206004820152601f60248201527f4552433230566f7465733a20626c6f636b206e6f7420796574206d696e656400604482015260640161069c565b6001600160a01b03831660009081526009602052604090206107759083611274565b9392505050565b7f9f2df0fed2c77648de5860a4cc508cd0818c85b8b8a1ab4ceeef8d981c8956a66107a681611056565b61061c838361136b565b6106dd3382611375565b6001600160a01b038116600090815260096020526040812054610523906113ee565b6001600160a01b038116600090815260066020526040812054610523565b600043821061084b5760405162461bcd60e51b815260206004820152601f60248201527f4552433230566f7465733a20626c6f636b206e6f7420796574206d696e656400604482015260640161069c565b610523600a83611274565b60009182526005602090815260408084206001600160a01b0393909316845291905290205460ff1690565b60606004805461053890612200565b6001600160a01b0381166000908152600960205260408120548015610904576001600160a01b03831660009081526009602052604090206108d2600183612263565b815481106108e2576108e261227a565b60009182526020909120015464010000000090046001600160e01b0316610907565b60005b6001600160e01b03169392505050565b600033816109258286610c5f565b9050838110156109855760405162461bcd60e51b815260206004820152602560248201527f45524332303a2064656372656173656420616c6c6f77616e63652062656c6f77604482015264207a65726f60d81b606482015260840161069c565b6105ec8286868403610d0e565b6000336105c9818585610eac565b834211156109f05760405162461bcd60e51b815260206004820152601d60248201527f4552433230566f7465733a207369676e61747572652065787069726564000000604482015260640161069c565b604080517fe48329057bfd03d55e49b547132e39cffd9c1820ad7b9d4c5307691425d15adf60208201526001600160a01b038816918101919091526060810186905260808101859052600090610a6a90610a629060a00160405160208183030381529060405280519060200120611457565b8585856114a5565b9050610a75816114cd565b8614610ac35760405162461bcd60e51b815260206004820152601960248201527f4552433230566f7465733a20696e76616c6964206e6f6e636500000000000000604482015260640161069c565b610acd8188611375565b50505050505050565b83421115610b265760405162461bcd60e51b815260206004820152601d60248201527f45524332305065726d69743a206578706972656420646561646c696e65000000604482015260640161069c565b60007f6e71edae12b1b97f4d1f60370fef10105fa2faae0126114a169c64845d6126c9888888610b558c6114cd565b6040805160208101969096526001600160a01b0394851690860152929091166060840152608083015260a082015260c0810186905260e0016040516020818303038152906040528051906020012090506000610bb082611457565b90506000610bc0828787876114a5565b9050896001600160a01b0316816001600160a01b031614610c235760405162461bcd60e51b815260206004820152601e60248201527f45524332305065726d69743a20696e76616c6964207369676e61747572650000604482015260640161069c565b610c2e8a8a8a610d0e565b50505050505050505050565b600082815260056020526040902060010154610c5581611056565b61061c838361120d565b6001600160a01b03918216600090815260016020908152604080832093909416825291909152205490565b60408051808201909152600080825260208201526001600160a01b0383166000908152600960205260409020805463ffffffff8416908110610cce57610cce61227a565b60009182526020918290206040805180820190915291015463ffffffff8116825264010000000090046001600160e01b0316918101919091529392505050565b6001600160a01b038316610d705760405162461bcd60e51b8152602060048201526024808201527f45524332303a20617070726f76652066726f6d20746865207a65726f206164646044820152637265737360e01b606482015260840161069c565b6001600160a01b038216610dd15760405162461bcd60e51b815260206004820152602260248201527f45524332303a20617070726f766520746f20746865207a65726f206164647265604482015261737360f01b606482015260840161069c565b6001600160a01b0383811660008181526001602090815260408083209487168084529482529182902085905590518481527f8c5be1e5ebec7d5bd14f71427d1e84f3dd0314c0f7b2291e5b200ac8c7c3b925910160405180910390a3505050565b6000610e3e8484610c5f565b90506000198114610ea65781811015610e995760405162461bcd60e51b815260206004820152601d60248201527f45524332303a20696e73756666696369656e7420616c6c6f77616e6365000000604482015260640161069c565b610ea68484848403610d0e565b50505050565b6001600160a01b038316610f105760405162461bcd60e51b815260206004820152602560248201527f45524332303a207472616e736665722066726f6d20746865207a65726f206164604482015264647265737360d81b606482015260840161069c565b6001600160a01b038216610f725760405162461bcd60e51b815260206004820152602360248201527f45524332303a207472616e7366657220746f20746865207a65726f206164647260448201526265737360e81b606482015260840161069c565b6001600160a01b03831660009081526020819052604090205481811015610fea5760405162461bcd60e51b815260206004820152602660248201527f45524332303a207472616e7366657220616d6f756e7420657863656564732062604482015265616c616e636560d01b606482015260840161069c565b6001600160a01b03848116600081815260208181526040808320878703905593871680835291849020805487019055925185815290927fddf252ad1be2c89b69c2b068fc378daa952ba7f163c4a11628f55a4df523b3ef910160405180910390a3610ea68484846114f5565b6106dd8133611500565b61106a8282610856565b6106af5760008281526005602090815260408083206001600160a01b03851684529091529020805460ff191660011790556110a23390565b6001600160a01b0316816001600160a01b0316837f2f8788117e7eff1d82e926ec794901d17c78024a50270940304540a733656f0d60405160405180910390a45050565b6000306001600160a01b037f00000000000000000000000000000000000000000000000000000000000000001614801561113f57507f000000000000000000000000000000000000000000000000000000000000000046145b1561116957507f000000000000000000000000000000000000000000000000000000000000000090565b50604080517f00000000000000000000000000000000000000000000000000000000000000006020808301919091527f0000000000000000000000000000000000000000000000000000000000000000828401527f000000000000000000000000000000000000000000000000000000000000000060608301524660808301523060a0808401919091528351808403909101815260c0909201909252805191012090565b6112178282610856565b156106af5760008281526005602090815260408083206001600160a01b0385168085529252808320805460ff1916905551339285917ff6391f5c32d9c69d2a47ea670b442974b53935d1edc7fd64eb21e047a839171b9190a45050565b8154600090818160058111156112ce57600061128f84611559565b6112999085612263565b600088815260209020909150869082015463ffffffff1611156112be578091506112cc565b6112c981600161224b565b92505b505b8082101561131b5760006112e2838361163e565b600088815260209020909150869082015463ffffffff16111561130757809150611315565b61131281600161224b565b92505b506112ce565b80156113555761133e86611330600184612263565b600091825260209091200190565b5464010000000090046001600160e01b0316611358565b60005b6001600160e01b03169695505050505050565b6106af8282611659565b6001600160a01b038281166000818152600860208181526040808420805485845282862054949093528787166001600160a01b03198416811790915590519190951694919391928592917f3134e8a2e6d97e929a7e54011ea5485d7d196dd5f0ba4d4ef95803e8e3fc257f9190a4610ea68284836116e3565b600063ffffffff8211156114535760405162461bcd60e51b815260206004820152602660248201527f53616665436173743a2076616c756520646f65736e27742066697420696e203360448201526532206269747360d01b606482015260840161069c565b5090565b60006105236114646110e6565b8360405161190160f01b6020820152602281018390526042810182905260009060620160405160208183030381529060405280519060200120905092915050565b60008060006114b687878787611820565b915091506114c3816118e4565b5095945050505050565b6001600160a01b03811660009081526006602052604090208054600181018255905b50919050565b61061c838383611a32565b61150a8282610856565b6106af5761151781611a64565b611522836020611a76565b604051602001611533929190612290565b60408051601f198184030181529082905262461bcd60e51b825261069c91600401611fae565b60008161156857506000919050565b6000600161157584611c12565b901c6001901b9050600181848161158e5761158e612305565b048201901c905060018184816115a6576115a6612305565b048201901c905060018184816115be576115be612305565b048201901c905060018184816115d6576115d6612305565b048201901c905060018184816115ee576115ee612305565b048201901c9050600181848161160657611606612305565b048201901c9050600181848161161e5761161e612305565b048201901c90506107758182858161163857611638612305565b04611ca6565b600061164d600284841861231b565b6107759084841661224b565b6116638282611cbc565b6002546001600160e01b0310156116d55760405162461bcd60e51b815260206004820152603060248201527f4552433230566f7465733a20746f74616c20737570706c79207269736b73206f60448201526f766572666c6f77696e6720766f74657360801b606482015260840161069c565b610ea6600a611d8383611d8f565b816001600160a01b0316836001600160a01b0316141580156117055750600081115b1561061c576001600160a01b03831615611793576001600160a01b0383166000908152600960205260408120819061174090611ee385611d8f565b91509150846001600160a01b03167fdec2bacdd2f05b59de34da9b523dff8be42e5e38e818c82fdb0bae774387a7248383604051611788929190918252602082015260400190565b60405180910390a250505b6001600160a01b0382161561061c576001600160a01b038216600090815260096020526040812081906117c990611d8385611d8f565b91509150836001600160a01b03167fdec2bacdd2f05b59de34da9b523dff8be42e5e38e818c82fdb0bae774387a7248383604051611811929190918252602082015260400190565b60405180910390a25050505050565b6000807f7fffffffffffffffffffffffffffffff5d576e7357a4501ddfe92f46681b20a083111561185757506000905060036118db565b6040805160008082526020820180845289905260ff881692820192909252606081018690526080810185905260019060a0016020604051602081039080840390855afa1580156118ab573d6000803e3d6000fd5b5050604051601f1901519150506001600160a01b0381166118d4576000600192509250506118db565b9150600090505b94509492505050565b60008160048111156118f8576118f861233d565b14156119015750565b60018160048111156119155761191561233d565b14156119635760405162461bcd60e51b815260206004820152601860248201527f45434453413a20696e76616c6964207369676e61747572650000000000000000604482015260640161069c565b60028160048111156119775761197761233d565b14156119c55760405162461bcd60e51b815260206004820152601f60248201527f45434453413a20696e76616c6964207369676e6174757265206c656e67746800604482015260640161069c565b60038160048111156119d9576119d961233d565b14156106dd5760405162461bcd60e51b815260206004820152602260248201527f45434453413a20696e76616c6964207369676e6174757265202773272076616c604482015261756560f01b606482015260840161069c565b6001600160a01b0383811660009081526008602052604080822054858416835291205461061c929182169116836116e3565b60606105236001600160a01b03831660145b60606000611a85836002612353565b611a9090600261224b565b67ffffffffffffffff811115611aa857611aa8612372565b6040519080825280601f01601f191660200182016040528015611ad2576020820181803683370190505b509050600360fc1b81600081518110611aed57611aed61227a565b60200101906001600160f81b031916908160001a905350600f60fb1b81600181518110611b1c57611b1c61227a565b60200101906001600160f81b031916908160001a9053506000611b40846002612353565b611b4b90600161224b565b90505b6001811115611bc3576f181899199a1a9b1b9c1cb0b131b232b360811b85600f1660108110611b7f57611b7f61227a565b1a60f81b828281518110611b9557611b9561227a565b60200101906001600160f81b031916908160001a90535060049490941c93611bbc81612388565b9050611b4e565b5083156107755760405162461bcd60e51b815260206004820181905260248201527f537472696e67733a20686578206c656e67746820696e73756666696369656e74604482015260640161069c565b600080608083901c15611c2757608092831c92015b604083901c15611c3957604092831c92015b602083901c15611c4b57602092831c92015b601083901c15611c5d57601092831c92015b600883901c15611c6f57600892831c92015b600483901c15611c8157600492831c92015b600283901c15611c9357600292831c92015b600183901c156105235760010192915050565b6000818310611cb55781610775565b5090919050565b6001600160a01b038216611d125760405162461bcd60e51b815260206004820152601f60248201527f45524332303a206d696e7420746f20746865207a65726f206164647265737300604482015260640161069c565b8060026000828254611d24919061224b565b90915550506001600160a01b038216600081815260208181526040808320805486019055518481527fddf252ad1be2c89b69c2b068fc378daa952ba7f163c4a11628f55a4df523b3ef910160405180910390a36106af600083836114f5565b6000610775828461224b565b82546000908190818115611ddc57611dac87611330600185612263565b60408051808201909152905463ffffffff8116825264010000000090046001600160e01b03166020820152611df1565b60408051808201909152600080825260208201525b905080602001516001600160e01b03169350611e1184868863ffffffff16565b9250600082118015611e295750805163ffffffff1643145b15611e6e57611e3783611eef565b611e4688611330600186612263565b80546001600160e01b03929092166401000000000263ffffffff909216919091179055611ed9565b866040518060400160405280611e83436113ee565b63ffffffff168152602001611e9786611eef565b6001600160e01b0390811690915282546001810184556000938452602093849020835194909301519091166401000000000263ffffffff909316929092179101555b5050935093915050565b60006107758284612263565b60006001600160e01b038211156114535760405162461bcd60e51b815260206004820152602760248201527f53616665436173743a2076616c756520646f65736e27742066697420696e20326044820152663234206269747360c81b606482015260840161069c565b600060208284031215611f6a57600080fd5b81356001600160e01b03198116811461077557600080fd5b60005b83811015611f9d578181015183820152602001611f85565b83811115610ea65750506000910152565b6020815260008251806020840152611fcd816040850160208701611f82565b601f01601f19169190910160400192915050565b80356001600160a01b0381168114611ff857600080fd5b919050565b6000806040838503121561201057600080fd5b61201983611fe1565b946020939093013593505050565b60008060006060848603121561203c57600080fd5b61204584611fe1565b925061205360208501611fe1565b9150604084013590509250925092565b60006020828403121561207557600080fd5b5035919050565b6000806040838503121561208f57600080fd5b8235915061209f60208401611fe1565b90509250929050565b6000602082840312156120ba57600080fd5b61077582611fe1565b803560ff81168114611ff857600080fd5b60008060008060008060c087890312156120ed57600080fd5b6120f687611fe1565b95506020870135945060408701359350612112606088016120c3565b92506080870135915060a087013590509295509295509295565b600080600080600080600060e0888a03121561214757600080fd5b61215088611fe1565b965061215e60208901611fe1565b9550604088013594506060880135935061217a608089016120c3565b925060a0880135915060c0880135905092959891949750929550565b600080604083850312156121a957600080fd5b6121b283611fe1565b915061209f60208401611fe1565b600080604083850312156121d357600080fd5b6121dc83611fe1565b9150602083013563ffffffff811681146121f557600080fd5b809150509250929050565b600181811c9082168061221457607f821691505b602082108114156114ef57634e487b7160e01b600052602260045260246000fd5b634e487b7160e01b600052601160045260246000fd5b6000821982111561225e5761225e612235565b500190565b60008282101561227557612275612235565b500390565b634e487b7160e01b600052603260045260246000fd5b7f416363657373436f6e74726f6c3a206163636f756e74200000000000000000008152600083516122c8816017850160208801611f82565b7001034b99036b4b9b9b4b733903937b6329607d1b60179184019182015283516122f9816028840160208801611f82565b01602801949350505050565b634e487b7160e01b600052601260045260246000fd5b60008261233857634e487b7160e01b600052601260045260246000fd5b500490565b634e487b7160e01b600052602160045260246000fd5b600081600019048311821515161561236d5761236d612235565b500290565b634e487b7160e01b600052604160045260246000fd5b60008161239757612397612235565b50600019019056fea264697066735822122048aaa6d2ce35d6db8dba49c1e1e0cde57c60b76a4178fa72c2281a569cf600df64736f6c63430008090033",
  "linkReferences": {},
  "deployedLinkReferences": {}
}