{
  "_format": "hh-sol-artifact-1",
  "contractName": "TokenizedBallot",
  "sourceName": "contracts/TokenizedBallot.sol",
  "abi": [
    {
      "inputs": [
        {
          "internalType": "bytes32[]",
          "name": "proposalNames",
          "type": "bytes32[]"
        },
        {
          "internalType": "address",
          "name": "_tokenContract",
          "type": "address"
        },
        {
          "internalType": "uint256",
          "name": "_targetBlockNumber",
          "type": "uint256"
        }
      ],
      "stateMutability": "nonpayable",
      "type": "constructor"
    },
    {
      "inputs": [
        {
          "internalType": "uint256",
          "name": "",
          "type": "uint256"
        }
      ],
      "name": "proposals",
      "outputs": [
        {
          "internalType": "bytes32",
          "name": "name",
          "type": "bytes32"
        },
        {
          "internalType": "uint256",
          "name": "voteCount",
          "type": "uint256"
        }
      ],
      "stateMutability": "view",
      "type": "function"
    },
    {
      "inputs": [],
      "name": "targetBlockNumber",
      "outputs": [
        {
          "internalType": "uint256",
          "name": "",
          "type": "uint256"
        }
      ],
      "stateMutability": "view",
      "type": "function"
    },
    {
      "inputs": [],
      "name": "tokenContract",
      "outputs": [
        {
          "internalType": "contract IMyVotingToken",
          "name": "",
          "type": "address"
        }
      ],
      "stateMutability": "view",
      "type": "function"
    },
    {
      "inputs": [],
      "name": "updateBlock",
      "outputs": [],
      "stateMutability": "nonpayable",
      "type": "function"
    },
    {
      "inputs": [
        {
          "internalType": "uint256",
          "name": "proposal",
          "type": "uint256"
        },
        {
          "internalType": "uint256",
          "name": "amount",
          "type": "uint256"
        }
      ],
      "name": "vote",
      "outputs": [],
      "stateMutability": "nonpayable",
      "type": "function"
    },
    {
      "inputs": [
        {
          "internalType": "address",
          "name": "account",
          "type": "address"
        }
      ],
      "name": "votingPower",
      "outputs": [
        {
          "internalType": "uint256",
          "name": "numVotes",
          "type": "uint256"
        }
      ],
      "stateMutability": "view",
      "type": "function"
    },
    {
      "inputs": [
        {
          "internalType": "address",
          "name": "",
          "type": "address"
        }
      ],
      "name": "votingPowerSpent",
      "outputs": [
        {
          "internalType": "uint256",
          "name": "",
          "type": "uint256"
        }
      ],
      "stateMutability": "view",
      "type": "function"
    },
    {
      "inputs": [],
      "name": "winnerName",
      "outputs": [
        {
          "internalType": "bytes32",
          "name": "winnerName_",
          "type": "bytes32"
        }
      ],
      "stateMutability": "view",
      "type": "function"
    },
    {
      "inputs": [],
      "name": "winningProposal",
      "outputs": [
        {
          "internalType": "uint256",
          "name": "winningProposal_",
          "type": "uint256"
        }
      ],
      "stateMutability": "view",
      "type": "function"
    }
  ],
  "bytecode": "0x608060405234801561001057600080fd5b5060405161075138038061075183398101604081905261002f91610151565b600180546001600160a01b0319166001600160a01b0384169081179091556002829055604051631c4bbb4360e11b8152306004820152633897768690602401600060405180830381600087803b15801561008857600080fd5b505af115801561009c573d6000803e3d6000fd5b5050505060005b835181101561011657600060405180604001604052808684815181106100cb576100cb610229565b6020908102919091018101518252600091810182905283546001818101865594835291819020835160029093020191825591909101519101558061010e8161023f565b9150506100a3565b50505050610268565b634e487b7160e01b600052604160045260246000fd5b80516001600160a01b038116811461014c57600080fd5b919050565b60008060006060848603121561016657600080fd5b83516001600160401b038082111561017d57600080fd5b818601915086601f83011261019157600080fd5b81516020828211156101a5576101a561011f565b8160051b604051601f19603f830116810181811086821117156101ca576101ca61011f565b60405292835281830193508481018201928a8411156101e857600080fd5b948201945b83861015610206578551855294820194938201936101ed565b97506102159050888201610135565b955050505050604084015190509250925092565b634e487b7160e01b600052603260045260246000fd5b600060001982141561026157634e487b7160e01b600052601160045260246000fd5b5060010190565b6104da806102776000396000f3fe608060405234801561001057600080fd5b50600436106100935760003560e01c8063a720035111610066578063a72003511461010f578063b384abef1461012f578063c07473f614610144578063e2ba53f014610157578063f4dfd8c71461015f57600080fd5b8063013cf08b146100985780632a8cd29e146100c557806355a373d6146100dc578063609ff1bd14610107575b600080fd5b6100ab6100a63660046103aa565b610168565b604080519283526020830191909152015b60405180910390f35b6100ce60025481565b6040519081526020016100bc565b6001546100ef906001600160a01b031681565b6040516001600160a01b0390911681526020016100bc565b6100ce610196565b6100ce61011d3660046103c3565b60036020526000908152604090205481565b61014261013d3660046103f3565b610213565b005b6100ce6101523660046103c3565b6102cb565b6100ce610378565b61014243600255565b6000818154811061017857600080fd5b60009182526020909120600290910201805460019091015490915082565b600080805b60005481101561020e5781600082815481106101b9576101b9610415565b90600052602060002090600202016001015411156101fc57600081815481106101e4576101e4610415565b90600052602060002090600202016001015491508092505b8061020681610441565b91505061019b565b505090565b600061021e336102cb565b9050818110156102675760405162461bcd60e51b815260206004820152601060248201526f6e6f7420656e6f75676820766f74657360801b604482015260640160405180910390fd5b336000908152600360205260408120805484929061028690849061045c565b9250508190555081600084815481106102a1576102a1610415565b906000526020600020906002020160010160008282546102c1919061045c565b9091555050505050565b6001600160a01b03818116600081815260036020526040808220546001546002549251630748d63560e31b81526004810195909552602485019290925291939192911690633a46b1a89060440160206040518083038186803b15801561033057600080fd5b505afa158015610344573d6000803e3d6000fd5b505050506040513d601f19601f820116820180604052508101906103689190610474565b610372919061048d565b92915050565b600080610383610196565b8154811061039357610393610415565b906000526020600020906002020160000154905090565b6000602082840312156103bc57600080fd5b5035919050565b6000602082840312156103d557600080fd5b81356001600160a01b03811681146103ec57600080fd5b9392505050565b6000806040838503121561040657600080fd5b50508035926020909101359150565b634e487b7160e01b600052603260045260246000fd5b634e487b7160e01b600052601160045260246000fd5b60006000198214156104555761045561042b565b5060010190565b6000821982111561046f5761046f61042b565b500190565b60006020828403121561048657600080fd5b5051919050565b60008282101561049f5761049f61042b565b50039056fea2646970667358221220e11fb60946cc5f29a3ca3cc43f7a10dd42b010cf12dafa6e7de55425a712039864736f6c63430008090033",
  "linkReferences": {},
  "deployedLinkReferences": {}
}